{
  "transactions": [
    {
      "hash": "0xc123af3d9ee4ed87f3f064bf3bad50b0974e165d5e059a26d215cb64c7380404",
      "transactionType": "CALL",
      "contractName": null,
      "contractAddress": "0x21565564861e6e1668c95bd2e1fa9387458c85c3",
      "function": "mintNft(string)",
      "arguments": [
        "ipfs://bafybeig37ioir76s7mg5oobetncojcm3c3hxasyd4rvid4jqhy4gkaheg4/?filename=0-PUG.json"
      ],
      "transaction": {
        "from": "0xbfab953a4ad220853745942c0656988bfecb99cc",
        "to": "0x21565564861e6e1668c95bd2e1fa9387458c85c3",
        "gas": "0x3da7f",
        "value": "0x0",
        "input": "0xda86f4a900000000000000000000000000000000000000000000000000000000000000200000000000000000000000000000000000000000000000000000000000000057697066733a2f2f62616679626569673337696f6972373673376d67356f6f6265746e636f6a636d3363336878617379643472766964346a71687934676b61686567342f3f66696c656e616d653d302d5055472e6a736f6e000000000000000000",
        "nonce": "0xe4",
        "chainId": "0xaa36a7"
      },
      "additionalContracts": [],
      "isFixedGasLimit": false
    }
  ],
  "receipts": [
    {
      "status": "0x1",
      "cumulativeGasUsed": "0x192c67e",
      "logs": [
        {
          "address": "0x21565564861e6e1668c95bd2e1fa9387458c85c3",
          "topics": [
            "0xddf252ad1be2c89b69c2b068fc378daa952ba7f163c4a11628f55a4df523b3ef",
            "0x0000000000000000000000000000000000000000000000000000000000000000",
            "0x000000000000000000000000bfab953a4ad220853745942c0656988bfecb99cc",
            "0x0000000000000000000000000000000000000000000000000000000000000000"
          ],
          "data": "0x",
          "blockHash": "0xf22b3ba14878bf3d9334b24c2738bbd9ea92ca299efacf216c30d84398245709",
          "blockNumber": "0x8cb6f9",
          "blockTimestamp": "0x68caa6bc",
          "transactionHash": "0xc123af3d9ee4ed87f3f064bf3bad50b0974e165d5e059a26d215cb64c7380404",
          "transactionIndex": "0x45",
          "logIndex": "0x79",
          "removed": false
        }
      ],
      "logsBloom": "0x00000000000000000000020000000000000000000000000000000000000000000000000000000000000000000000000000800000000000000000000000000000000000000000800000000008000000000000000000000000000000000000000000000000020000000000000000000800000000000000000000000010000000000000000000000000000000000000000000000000000000000000000000000000000000000000000000000000000000000000000000000000001080000000000000000002000000002000000000000000000000000000000000000000000020000000000000000000000000000000000000000000000000000000000000000000",
      "type": "0x2",
      "transactionHash": "0xc123af3d9ee4ed87f3f064bf3bad50b0974e165d5e059a26d215cb64c7380404",
      "transactionIndex": "0x45",
      "blockHash": "0xf22b3ba14878bf3d9334b24c2738bbd9ea92ca299efacf216c30d84398245709",
      "blockNumber": "0x8cb6f9",
      "gasUsed": "0x2ca35",
      "effectiveGasPrice": "0x127814",
      "from": "0xbfab953a4ad220853745942c0656988bfecb99cc",
      "to": "0x21565564861e6e1668c95bd2e1fa9387458c85c3",
      "contractAddress": null
    }
  ],
  "libraries": [],
  "pending": [],
  "returns": {},
  "timestamp": 1758111422836,
  "chain": 11155111,
  "commit": null
}