{
  "transactions": [
    {
      "hash": "0x7ee1b26a02313ded2909193597f6e83d302766eace70120ba81d6424f1fa33b1",
      "transactionType": "CALL",
      "contractName": null,
      "contractAddress": "0xa4ed0d5977069c2591002249b32ffb135e59679d",
      "function": "mintNft(string)",
      "arguments": [
        "ipfs://QmX6UUQJSjoWjjtbWY19VBphfA7TiDQUZy36uwDq6Nio9J/?filename=Balto.json"
      ],
      "transaction": {
        "from": "0xbfab953a4ad220853745942c0656988bfecb99cc",
        "to": "0xa4ed0d5977069c2591002249b32ffb135e59679d",
        "gas": "0x35041",
        "value": "0x0",
        "input": "0xda86f4a90000000000000000000000000000000000000000000000000000000000000020000000000000000000000000000000000000000000000000000000000000004a697066733a2f2f516d58365555514a536a6f576a6a7462575931395642706866413754694451555a79333675774471364e696f394a2f3f66696c656e616d653d42616c746f2e6a736f6e00000000000000000000000000000000000000000000",
        "nonce": "0xe7",
        "chainId": "0xaa36a7"
      },
      "additionalContracts": [],
      "isFixedGasLimit": false
    }
  ],
  "receipts": [
    {
      "status": "0x1",
      "cumulativeGasUsed": "0x183b6db",
      "logs": [
        {
          "address": "0xa4ed0d5977069c2591002249b32ffb135e59679d",
          "topics": [
            "0xddf252ad1be2c89b69c2b068fc378daa952ba7f163c4a11628f55a4df523b3ef",
            "0x0000000000000000000000000000000000000000000000000000000000000000",
            "0x000000000000000000000000bfab953a4ad220853745942c0656988bfecb99cc",
            "0x0000000000000000000000000000000000000000000000000000000000000001"
          ],
          "data": "0x",
          "blockHash": "0x53155c8e1925fdd342c02ac640a07508280e8e8edd7bcab9742faa0d31990a38",
          "blockNumber": "0x8d567b",
          "blockTimestamp": "0x68d294fc",
          "transactionHash": "0x7ee1b26a02313ded2909193597f6e83d302766eace70120ba81d6424f1fa33b1",
          "transactionIndex": "0xe2",
          "logIndex": "0x163",
          "removed": false
        }
      ],
      "logsBloom": "0x00000800000000000000020000000000000000000000000000000000000000000000000000000000000000000000000000000000000000000000000000040000000000000000000000000008000000000000000000040000000000000000000000000000020000000000000000000800000000000000000000000010000000000000000000000000000000000000000000000000000000000000000000000000000000000000000000000000000000000000000000000000001080000000400000000002000000000000000000000000000000000000000000000000000060000000000000002000000000000000000000000000000000000000000000000000",
      "type": "0x2",
      "transactionHash": "0x7ee1b26a02313ded2909193597f6e83d302766eace70120ba81d6424f1fa33b1",
      "transactionIndex": "0xe2",
      "blockHash": "0x53155c8e1925fdd342c02ac640a07508280e8e8edd7bcab9742faa0d31990a38",
      "blockNumber": "0x8d567b",
      "gasUsed": "0x24401",
      "effectiveGasPrice": "0xf44e6",
      "from": "0xbfab953a4ad220853745942c0656988bfecb99cc",
      "to": "0xa4ed0d5977069c2591002249b32ffb135e59679d",
      "contractAddress": null
    }
  ],
  "libraries": [],
  "pending": [],
  "returns": {},
  "timestamp": 1758631166343,
  "chain": 11155111,
  "commit": null
}